:100000000C9434000C9451000C9451000C94510049
:100010000C9451000C9451000C9451000C9451001C
:100020000C9451000C9451000C9451000C9451000C
:100030000C9451000C94BA000C9451000C94510093
:100040000C94A8000C9451000C948F000C94530055
:100050000C9451000C9451000C9451000C945100DC
:100060000C9451000C94510011241FBECFEFD4E02A
:10007000DEBFCDBF11E0A0E0B1E0E4E9F2E002C0F4
:1000800005900D92A632B107D9F711E0A6E2B1E0D2
:1000900001C01D92A433B107E1F70E94F5000C9452
:1000A00048010C9400001F920F920FB60F9211247A
:1000B0002F933F938F939F93EF93FF938091320100
:1000C000813011F1109232012091330130E08091A2
:1000D0002301909124012817390731F48091C10040
:1000E0008F7D8093C1000BC080913301E0912E0180
:1000F000F0912F01E80FF11D80818093C60080915F
:1001000033018F5F80933301FF91EF919F918F9126
:100110003F912F910F900FBE0F901F9018951F9237
:100120000F920FB60F9211248F93EF93FF93E6EC8B
:10013000F0E08081808381E0809332011092280179
:10014000FF91EF918F910F900FBE0F901F90189518
:100150001F920F920FB60F9211248F939F9385B128
:1001600090E2892785B99F918F910F900FBE0F90D4
:100170001F9018951F920F920FB60F9211248F9314
:100180009F9385B190E2892785B980EF9FE0909396
:10019000850080938400809129018F5F80932901DD
:1001A0009F918F910F900FBE0F901F90189583E035
:1001B0008093810081E086BB80936F00089583E087
:1001C00085BD81E085BB80936E000895809101011B
:1001D0008093C500809100018093C40086E08093E5
:1001E000C20088E98093C1000895259A8FEF85B9F0
:1001F000F894109229010E94E6000E94D70078949A
:10020000EBE04DE051E07FE122E031E088E191E078
:10021000609129016A3089F4E09329011092330139
:1002200050932F0140932E0160910D016093C60001
:100230006091C10060626093C100609129016E31DC
:1002400089F4709329011092330130932F01209388
:100250002E01609102016093C6006091C10060624E
:100260006093C10060912901623391F610922901D7
:100270001092330190932F0180932E016091180109
:100280006093C6006091C10060626093C100C0CFFE
:04029000F894FFCF10
:1002940067005061636B65742030303100326E64E6
:1002A400207061636B6574004F74686572206279B5
:0602B40074650004000067
:00000001FF
